:100000006F4080291300000013000000130000005F
:100010001300000013000000130000001300000094
:100020001300000013000000130000001300000084
:08003000130000007300100032
:1000380000000000000000002E0400003204000050
:1000480000000000DE410000000000000000000089
:10005800E0410000E2410000000000000000000054
:100068000C400000000000005C02000000000000DE
:10007800E8410000EA410000EC410000EE410000C8
:10008800F0410000F2410000F4410000F641000098
:10009800F8410000FA410000FC410000FE41000068
:1000A8000042000002420000044200000642000034
:1000B800084200000A4200000C4200000E42000004
:1000C80010420000124200001442000016420000D4
:1000D800184200001A4200001C4200001E420000A4
:1000E8002042000022420000244200002642000074
:1000F800284200002A4200002C4200002E42000044
:100108003042000032420000344200003642000013
:10011800384200003A4200003C4200003E420000E3
:1001280040420000424200004442000046420000B3
:10013800484200004A4200004C4200004E42000083
:100148005042000052420000544200005642000053
:10015800584200005A4200005C4200005E42000023
:1001680060420000624200006442000066420000F3
:10017800684200006A4200006C4200006E420000C3
:100188007042000072420000744200007642000093
:10019800784200007A4200007C4200007E42000063
:1001A8008042000082420000844200008642000033
:1001B800884200008A4200008C4200008E42000003
:1001C80090420000924200009442000096420000D3
:1001D8000000000000000000000000000000000017
:1001E8000000000000000000000000000000000007
:0801F8000000000000000000FF
:1002000083A2418503A1020011A0010082427390E4
:100210001234924273900230A240B2414242D24222
:100220006243F243025492542255B2554256D2567A
:100230006257F257064896482649B649464AD64A72
:10024000664BF64B065C965C265DB65D465ED65EFA
:10025000665FF65F0961730020300100197116CAEC
:100260009302000273A04280F322003016C2F322F0
:10027000103416C006C40EC612C81ACC1ECE22D028
:1002800026D22AD42ED632D836DA3ADC3EDEC2C0A6
:10029000C6C2CAC4CEC6D2C8D6CADACCDECEE2D076
:1002A000E6D2EAD4EED6F2D8F6DAFADCFEDE8A82BC
:1002B00003A1018216C0EF30304E02419382418586
:1002C0001383018683A3020023A0230003230300DA
:1002D00023A0620003210300924273900230824205
:1002E00073901234A240B2414242D2426243F2437E
:1002F000025492542255B2554256D2566257F25782
:10030000064896482649B649464AD64A664BF64BB1
:10031000065C965C265DB65D465ED65E665FF65F01
:10032000096173002030397101436EC619A039711B
:1003300041536AC866CA62CC5ECE19A039710153B6
:100340005AD056D252D44ED64AD826DA22DC06DE0D
:1003500033016140828241114AC026C222C406C6CE
:100360008282B24D4101024D924C224CB24B41016E
:10037000024B924A224AB249410102499244224424
:10038000B240410182803D432A876373C302937761
:10039000F700BDEFADE5937606FF3D8ABA960CC334
:1003A0004CC30CC74CC74107E36BD7FE11E28280F8
:1003B000B306C3408A069702000096966780A6009F
:1003C0002307B700A306B7002306B700A305B700AD
:1003D0002305B700A304B7002304B700A303B700A5
:1003E0002303B700A302B7002302B700A301B7009D
:1003F0002301B700A300B7002300B700828093F564
:10040000F50F93968500D58D93960501D58D61B72F
:10041000939627009702000096968682E78086FAD8
:100420009680C1171D8F3E96E374C3F8A5B773007D
:10043000203001A0EFF23FF237C400001305040B97
:10044000EF70E06A81451305007DEF30D00DFDB7F8
:10045000EFF2FFEDB7C4000037C90000AA8A2E8B67
:10046000328A01449384C40A1309496DB7CB000052
:10047000634844012945EF708056EF10A050E5B560
:10048000A68911C0CA8993173400DA978C43D043E8
:1004900056850504EF1000142A86CE8513854B047B
:1004A000EF70C04FF1B7EFF27FE9375500209305A9
:1004B000007D13058534EF1000482A84EF10604D4D
:1004C0002A893705000013050545AE89EF10004C59
:1004D000B7C600002A87AE879386060CCA854E866B
:1004E0002285EF10804BB7C500009385850C2285CF
:1004F000EF106055B7C400009385440D2285EF10BE
:10050000805481451305803EEF30F001F5B7EFF2DE
:100510009FE4716513050520EF40600DB7070020CB
:1005200083A5071E37C500001305C504EF700047FB
:10053000B7C5000037C500009385C50513054506FE
:10054000EF70C045EF30A04F0D64B70700203706AD
:100550000000B7C50000373500208148130804802B
:10056000938787250D4781461306464393854508A3
:10057000130585A5EF30E04EB737002037060000A1
:10058000B7C50000373500208148130804809387E1
:1005900087B4114781461306664A9385C50813053B
:1005A00005ADEF30004CEF30C03B37C50000130500
:1005B0004509EF70C0530100FDBFB71702409843D3
:1005C000B706FFF841111367170098C3D8433706E1
:1005D0000200758FD8C39843B706F7FEFD16758FD6
:1005E00098C39843B706FCFFFD16758F98C3D84390
:1005F000B70681FFFD16758FD8C39843B70600EC88
:10060000FD16758F98C33707FF0098C723A607020A
:1006100002C402C69843C166558F98C3B7160240FC
:1006200005679C42F18F3EC6A24785073EC4B2478C
:1006300081E7A247E397E7FEB71702409C43139771
:10064000E7006357070685473EC632478547631F65
:10065000F704B7170240D843B706C1FFFD16D8C349
:10066000D843D8C3D84313670740D8C3D843758F3E
:10067000D8C3D843B7061D00558FD8C39843B706D3
:100680000001558F98C3984393166700E3DD06FE7B
:10069000D843B7160240719BD8C3D84313672700CD
:1006A000D8C32147DC42B18BE39EE7FE4101828043
:1006B00002C661BF13D745019307F07F1545631547
:1006C000F700C18113F5F5008280EFF2DFC8DD3756
:1006D00059151335150055B138517C4D411102C6DD
:1006E0006374F700998F3EC6B247584163F3E70041
:1006F0005CC17C5578006377F700998F184163736C
:10070000F7001CC141018280AA8701456308B50238
:100710006307D5003307A6000307070001E785C17B
:10072000AA8501A83388A7002300E8000505F9BFC2
:100730007D153E95230005002E85828075F9828007
:10074000130E0002914E9306F0021303A002294FEC
:100750006364B600328582803307C5000308070052
:1007600093071600630CC803930878FF93F8F80FFB
:1007700063F61E0363F8B7026316D802B308F500E8
:10078000838808006390D802930726006388B70027
:100790003307F500030707006314E7013E864DBFEA
:1007A0008507EDB793083600E3F6B8FAE314D8FAF4
:1007B000AA9783870700E39F67F893074600E38FB4
:1007C000B7FC030627006316660003063700E3073D
:1007D000D6FC85070507E5B7639BB600EFF2BFB708
:1007E000B2853686EF50D0711335150079B60145C4
:1007F0008280AA87130505FD1375F50F2547637DD4
:10080000A7001387F7F91377F70F954663E7E6001C
:10081000938797FA13F5F70F82801387F7FB137707
:10082000F70F0145E3EAE6FE938797FCE5B71377F8
:1008300035008546AA87630ED700214501CF89463A
:100840007D556319D70013D527000D057199110542
:10085000828041458280EFF21FB041112A84AE842C
:1008600032C6A53501C5324600C244C2410131B687
:10087000EFF27FAE38517C4D411102C663F0E702C2
:10088000B7C6000037C500009386863413860183FF
:100890009305E0091305C535EF5090603C4D1146B6
:1008A0006800BE95EF50306832454101F9B4EFF26F
:1008B0009FAA41112E8436C6653FB24609817D1537
:1008C00088C21305440041014DBCEFF2DFA82C495A
:1008D0002A849105713FB707F07F28C87CC871BC96
:1008E000EFF27FA72A892E842E85B285B284D93370
:1008F00019476315E5003335800041B41547AA87D1
:10090000631BE500014681462285A685EF40106203
:100910003335A000DDB70545EDD31D47E38FE7FC78
:1009200009470145E39BE7FCA2854A859137098188
:100930007D15F9BFEFF29FA0AA84B6893A8A0D3FD0
:10094000BC501374C5FF637AF40219E022850DB41C
:10095000930544002685293FAA852A892685093FD3
:10096000B04C935625001109FD164A96D2854E8546
:10097000A53569FDA2852685D9B70144C1BFEFF22F
:10098000FF9B41112A892E84B28485492285A68540
:100990001533631D35018325890521042146A29560
:1009A0002800EF5050582244B244CDB72285A68586
:1009B00041017DBA830705001307F005638BE70645
:1009C000130740026387E70693F7F7FD9387F7FB6A
:1009D00093F7F70F6547637EF70481473E85828072
:1009E000850404C2044263F6B402B307950083870A
:1009F0000700E38707FFE38517FF13F7F7FD1307EA
:100A0000F7FB1377F70FE37DE3FC938707FDE3F92B
:100A1000F6FC1C215D479387E7F993F7F70F636AAC
:100A2000F73431678A071307070FBA979C432A8464
:100A30008287EFF25F921308F00593084002654346
:100A4000A5464DB72A8637C50000A68695451305ED
:100A5000053A5933894719C1930720033E856FF042
:100A6000DF912A8637C50000A68695451305853A8D
:100A7000A533930750037DF137C50000A686228673
:100A800091451305053B893B9307300361F937C551
:100A90000000A686228695451305853B353B9307C6
:100AA00040034DFD37C50000A686228695451305F7
:100AB000053C1D339307600355F137C50000A6863A
:100AC0002286A1451305853C013B894741D99307FF
:100AD000700369B72A8637C50000A68689451305C5
:100AE000453DDD399307A00335F937C50000A686DB
:100AF00022869D451305853DC531894725D193073C
:100B00008003A9BF2A8637C50000A6869145130534
:100B1000053ED931894739D19307B00381B72A8679
:100B200037C50000A6868D451305853E75319307B0
:100B3000D003E31505F237C50000A6862286A1453D
:100B40001305052251399307E003E31905F037C572
:100B50000000A68622869D451305C53EB53993073C
:100B6000C003E31D05EE37C50000A6862286954525
:100B70001305453F95318947E30205EE93071005BC
:100B8000F1BD2A8637C50000A68689451305C53FF5
:100B9000A1319307F003E31305EC37C50000A686E7
:100BA0002286894513050540053993070004E3179C
:100BB00005EA37C50000A6862286A94513054540EB
:100BC00021398947E30C05E89307100441BD2A86C3
:100BD00037C50000A6868D4513050541F53E8947BA
:100BE000E30E05E69307200495BD2A8637C500006D
:100BF000A6868D4513054541C53693073004E31F8E
:100C000005E437C50000A6862286914513050547F1
:100C1000E1368947E30405E49307F00481B52A86A9
:100C200037C50000A6869945130585417536894765
:100C3000E30605E29307400415B52A8637C5000090
:100C4000A686994513050542413E8947E30805E01C
:100C50009307500421B52A8637C50000A6868D4526
:100C600013058542953E93078004E31905DE37C5D9
:100C70000000A686228691451305C542B13E930722
:100C80006004E31D05DC37C50000A6862286954575
:100C900013054543913693077004E31105DC37C50E
:100CA0000000A686228691451305C5433536930775
:100CB0000005E31505DA37C50000A68622869945AA
:100CC00013054544113E8947E30A05D89307A0065A
:100CD00071B32A8637C50000A686A545130585474A
:100CE000E53C8947E30C05D69307E00485BB2A86DB
:100CF00037C50000A6868D451305C544F13C930712
:100D00009004E31D05D437C50000A68622869145D0
:100D100013050545D1348947E30205D49307A004A0
:100D200035BB2A8637C50000A6869545130585453F
:100D300065349307B004E31305D237C50000A686D7
:100D40002286914513050546413C8947E30805D0B5
:100D50009307C00421B32A8637C50000A6869545AF
:100D600013058546953C8947E30A05CE9307D004D1
:100D7000F5B18947E5B1EFF20FDE0329050304451C
:100D800050592A8423070502A30605024111CA858A
:100D90002685EFF0FF9A48D808DC232E0402636909
:100DA00025018547A306F402054541016FF0EFDCFC
:100DB000AA94838704001307F0026384E720634941
:100DC000F708130780026382E7146340F7041307F0
:100DD00050026387E7206343F7021307100263831F
:100DE000E71413072002638EE72EB305A94013060C
:100DF000C4032685C136A306A402F5A81307600222
:100E0000638FE71E13077002F9BF1307B002638CEC
:100E1000E7166346F70213079002638AE70E13078B
:100E2000A002E394E7FC0505637A25198387140083
:100E30001307A002639DE7169307D0063DA2130790
:100E4000D002638BE710635CF70C9307400645A064
:100E50001307E0036383E7246342F7041307A00347
:100E60006382E70A63CDE72C1307C0036386E71E9E
:100E70006355F70A9307150063FD271D8387140048
:100E80001307D0036397E71C09056374251D0387C7
:100E900024006310F71C9307A00745A81307B007A9
:100EA0006389E7066346F7021307F003638FE702DF
:100EB0001307E005E39BE7F205056371252303872C
:100EC00014009307D003631BF7209307D0F871A891
:100ED0001307D0076381E70463C7E7141307E0072C
:100EE000E395E7F09307900619A0930720F8A3066F
:100EF000F40285475CDC1C5C585C0345D402BA975D
:100F00005CD865B5930710F8DDB79947CDB79D4715
:100F1000F9BFA147E9BFA547D9BF9547C9BF930707
:100F2000F0F8F1B79307150063F527030387140062
:100F30009307D003631FF7000905637C250103872E
:100F400024006318F7009307B007A306F4028D4747
:100F500055B79307800661BF0505637325030387B3
:100F600014006318F70093077006A306F40289477C
:100F700051B79307D0036315F700930750F8F5B7FF
:100F800093072007ADB70505637025030387140099
:100F90006315F70093076006C9BF9307D003631575
:100FA000F700930740F8D1B79307100789B71307E5
:100FB000D0036395E700930760F845BF9307E00609
:100FC0003DB70505637B2501038714009307D00314
:100FD0006315F700930770F849BF9307F00601BF48
:100FE0000505637B2501038714009307D003631570
:100FF000F700930780F895BF93070007CDBD05055F
:1010000063702503038714006315F7009307F00747
:10101000A9BF9307D0036315F7009307C0F8B1B7D2
:101020009307C007E9B5050563722503838714009C
:101030001307C0076395E700930700F83DB7130750
:10104000D0036395E7009307E0F805B79307E0073F
:1010500079BD930730F861BD13071500637C270342
:10106000038714006311F7020905637B25010387D9
:1010700024009307D0036315F700930790F8F1B5A8
:1010800093073007DDB59307D0036315F700930787
:101090007007E1BD9307600799BD13071500637CD6
:1010A0002703038714006311F7020905637B2501F9
:1010B000038724009307D0036315F7009307A0F874
:1010C00069B59307400755B59307D0036315F7003B
:1010D0009307900759BD9307800711BD9307D00769
:1010E00039B585475CDC9308C005130380075C5C59
:1010F000838504003388F4003307F50003060800F5
:10110000637C27036397C5001147A306E4028507A4
:10111000D5B38546631F160193062700636ED90079
:101120000308180089466316680011076366E90022
:101130009146B6975CDC65BFE31FB6DAF1B726854A
:101140006C00EF70B0038D47A306F402B24728C4C9
:101150006CC4B384974044DC79BB0347E50201E7E4
:101160000345D5028280EFF20F9F31316FF0EFA07F
:10117000EFF2CF9C41112A84AE89EFF06FEF2A89FC
:1011800063580502284CB704008093C7F4FFB37777
:10119000F9002C0011464E953EC4EF50C05893C53F
:1011A000C4FF93773900B375B90081EF2285C93741
:1011B000370500801345C5FF3375A90041016FF065
:1011C0002F9B0547E396E7FE22855D37938549000F
:1011D0002285EFF0EFE9AA852285593F2C4CA10921
:1011E0002146CE952800EF500054A244B2452685F2
:1011F000EFF04FCC894763F5A7009D47E31AF5FA56
:10120000A6856DB7EFF22F920111AA892E8A2E853D
:10121000B285B6843A8932C6EFF0CFC9A547AA860F
:1012200063E9A71E31679317250013070715BA97BF
:101230009C433246828737C60000A5461306864780
:10124000CA852685EFF04FCC05616FF08F9137C6C8
:101250000000914613060647E5B7137A1A00631893
:101260000A0037C600001306463F9546D1BF37C671
:1012700000001306C6439146E1B737C60000854615
:101280001306064DCA852685EFF00FC82A84D2853D
:101290004E85EFF0EFDD137BC5FFB7CB000037CCF9
:1012A000000083A70906B38C8400330D8940637462
:1012B000FB00631D0B0037C6000085461306C64DB4
:1012C000EA856685EFF04FC42295BDBF93054B00BC
:1012D0004E85EFF0EFD983A5890593078B00AA8D82
:1012E000BE9521462808EF5000449306F4FFB3361C
:1012F000D00013864B4DEA856685624AF24AEFF0CC
:10130000AFC02A9433078940B3868400EE85370640
:10131000F27F4E85C53D2A94B30589408546130664
:101320008C4D33858400EFF02FBE2A94330789401B
:10133000B3868400D28556864E85E935DA852A94AF
:101340004E85EFF0EFD2137BC5FFA1BFD2853408E5
:101350004E85EFF0CFD537CA0000AA8A854613061E
:101360000A4ECA852685EFF02FBA03A68905E24604
:101370002A845696B305A9402695EFF0EFB82A9433
:10138000854613060A4EB3058940338584001DBF88
:10139000B287B28952853008BE85EF60007601467B
:1013A00081465289EF40803819C9B7C5000093853E
:1013B000C54C4A86CE862685EF60700671B5B7C5E6
:1013C00000009385454CF5B7D28534084E85EFF083
:1013D0000FCE37C600002A8AA14613060622CA8508
:1013E0002685EFF06FB203A689052A84E24652965D
:1013F00059BF37C60000D2861306464ECA852685D9
:10140000EF60E07A91B537C60000D2861306464FEA
:10141000F5B737C6000013060650CDB7397126CA96
:1014200032D49304C50037C6000022CC4AC82A84AF
:101430002E8936D61306062E9D4693051002268564
:1014400006CE3EDA3AD842DC46DEEFF0EFAB93054B
:1014500010023410898D4A86269536C6EF70606F6B
:101460001C5823070402F2405CD8930700105EB4B6
:101470006244D24442490145B705FA7F2161828026
:10148000EFE2DFEB205193877600784D4111F19B1D
:101490002EC6A297AA84637BF700B7C50000938588
:1014A00005382685A53F41016FE09FEC3CD1FD57F3
:1014B000E305F4FE284DB2896C0011462295368969
:1014C000EF506026638A0900BC4C130544004A862D
:1014D000CE853E95EF508030B24589478D89639720
:1014E000F500BC4CA297CA97A3810700C205B707B5
:1014F000F07F2285DD8D45BFEFE2FFE5204D79715C
:10150000AA842E94A2851146680842C636C23EC4FB
:10151000EF506021A24792460C103ED4B2471146CC
:1015200022853ED6BC5036D23ED0EF50C01FF24589
:101530005010B146F199268593E515009137456124
:101540006FE0BFE3EFE23FE18347F5024111858B96
:1015500099CFB7C6000037C500009386463813867A
:1015600081839305D0221305C535EF5060133C49A4
:101570007000914681452A843EC6193728C86CC838
:1015800041016FE09FDFEFE21FDD41112EC62A848B
:10159000B284E136B245630EB500B7C5000093854D
:1015A000C5292285A53D88C0CCC0014541016FE019
:1015B000DFDC85472307F4020545CDBFEFE2BFD945
:1015C00093061600939726002E8693E527004D3D3F
:1015D0006FE0BFDAEFE29FD6AA842E892E85B2850E
:1015E000B289EFF08F8E1384C4000DE5B850FC4C27
:1015F0009306470063F3F602A04CF117CA853694B0
:101600004E863387E740A2862685ED3E2A868145B1
:1016100026856D3722856FE0BFD537C400001304DF
:10162000C40ACDBFEFE23FD01C5D83298500244D65
:101630000111BE993C5113874700BA94585DBA977F
:10164000784D91076371F710B7C500009385053891
:10165000F13305616FE0FFD0338529010821631B59
:10166000750D4E97182303C509006313A702B387AE
:10167000C40098A305090506CA87485C138727009C
:1016800013891700E36AA7FC22858145053FD1B77E
:1016900063178701B387C40023800701E1BF631686
:1016A0009701B387C4008CA3F1B76316A701B38772
:1016B000C40094A3C1B76319B707138937003387F0
:1016C00029010823130705FD63FAEA001377F5FDE6
:1016D0001307F7FB1377F70F6368EB04CE97D82354
:1016E000930707FD63FAFA009377F7FD9387F7FBFB
:1016F00093F7F70F636AFB0242CE2ECC36CA32C88C
:101700003AC6EFF00F8F32472A8A120A3A85EFF075
:101710004F8E4246336AAA00D246B387C400238064
:101720004701E2457248B9B7B7C500009385453215
:10173000228539BF1C44185CCA97BA979823B3878F
:10174000C40098A30DBF2A8401468147930BC005AE
:10175000130CE006930C4007130D2007930D800730
:10176000A54A154BB546A545294801BFEFE2BFBBC9
:1017700041112A84EFE05FF63840FD576307F71404
:101780008144B70900803C5063EBF4022448A685ED
:101790002285EFF0FF9D938544002285EFF04F8D69
:1017A000AA8475F52C4081C52285EFF07F9CB70A8D
:1017B0000080814493CAFAFF054B894B21A2A6857C
:1017C0002285EFF0EF8A2A89284CB3673901114648
:1017D0002C0026953EC4EF4010754A85EFF02F850A
:1017E000AA9455B7A6852285EFF08F88AA8933750C
:1017F0005501EFF0CF832A8963D5090C014A370CD4
:10180000F07F9D4C95A0D2852285EFF06F86AA8946
:1018100033755501EFF0AF812A8D63C6090493F744
:101820002900B1E363FB3401284CB38729411146F9
:101830002C0052953EC4EF40106F93F93900639924
:10184000090893094A00CE852285EFF06F8263FC78
:10185000A4003C4C330525412AC411462C00338595
:101860003701EF40506C6A9A3050E36ECAF83C483A
:1018700063F8F400B38727413CC8B707F07F7CC802
:101880003C4063E59700B38727413CC01C44284C8B
:10189000637CF500744C3387A7406377D70063F50A
:1018A000E400B38727411CC4B38524010D8EAA959B
:1018B0002695EF40B0723C503389274123202407FE
:1018C0000149CA943C50E3EFF4F041016FE07FA975
:1018D000E39B69F993094A00CE852285EFE05FF921
:1018E00063FCA4003C4C330525412AC411462C005E
:1018F00033853701EF4030633C4C930D8A0021461D
:10190000BE9DEE852800EF401062A249B2454E858B
:10191000EFE05FDA63F4AB00E31795F5E3F534F538
:1019200042053365AC00B38929412AC64EC421461D
:101930002C006E853DB7EFE21FA29307700741119F
:10194000014463FDB7022E86AE8481452A84EFE010
:101950009FA393070407938404F93CCC64CC91467D
:1019600070008145228502C6EFF09FB17C4C28C8EB
:101970006CC8E19B7CCC5CC085837CD02285410116
:101980006FE0BF9F0145B705F37F8280B705F97F00
:1019900082800145B705F07F8280EFE23F9A2A847A
:1019A0002E892E85B285B289B6843A8ABE8AEFE046
:1019B0007FD00DE12685EF60E02A2A86A685228564
:1019C000F53EAA862E87D2875688CA854E862285FE
:1019D000EFF09FB26FE0DF99EFE25F9601110147F0
:1019E000B707F37F3ACC3ECE1307F6FFF5572A84AC
:1019F00063F8E7002E852EC6EF60C026B2452A8622
:101A000085472307F4023C08A30604020CC410D83F
:101A1000232A04027CD485442285EFF00FF4624926
:101A2000F249630795004A85CE85EFE01FCA11C5CC
:101A30004A85CE8505616FE0BF932285EF0090391E
:101A40002ACC2ECED1BFEFE21F917D5671376FE0C9
:101A5000DF92EFE25F8DBE8C8347F5021D71858BAF
:101A6000639D0778B28AAE89B28536863A8C2A8D14
:101A7000368BEFE0DFF02A84AE846686E2856A85E5
:101A8000EFE0FFEF2A896A852E8AEFE0FFC4228506
:101A9000A685EFE09FC32DED4A85D285EFE0FFC21A
:101AA000631105769387D90793F7F70F2D47636383
:101AB000F7765685DA85EFE0FFBF8547630AF5764E
:101AC000B7C50000938505206A85EFF03F953DA8D6
:101AD000D2854A85EFE01FBEB1652A841306000354
:101AE000938545010818EF401044AD4763E787022E
:101AF0000A049C103E94832504FD2E852EC0EF60C1
:101B0000601682452A866A85EFF05FAB2A84AE8430
:101B10002285A68525616FE0DF84B7C50000938527
:101B2000C51FE1BF4A85D285EFE0DFB8A147630753
:101B3000F500B7C500009385852079B72285A68575
:101B4000EFE05FB7930795FF93F7D70FAA8A91C786
:101B5000B7C500009385452185BFB70500018329DE
:101B60008D00FD153375B900220A135989018327A9
:101B70004D0333692A01B375B9004E95832B0D03CC
:101B80002324AD002328BD0201463EC0EFE05FBB29
:101B90008347DD02232AAD0201493EC28347FD028D
:101BA0003EC483270D043EC69D47638BFA049D44C3
:101BB000130AF008854A03274D0383270D03636842
:101BC000F71E83258D058327CD0513561940131A5B
:101BD0003900BE950E06AE86338545012E966115F9
:101BE000631AD6224A866A8502942A846A85AE845C
:101BF000EFE09FAE8327CD05D297232EFD04A5AA43
:101C0000A285268674106A85EFE07FCA83248D053D
:101C10009307C5FF2320FD04AA946A853254054B1F
:101C2000EFF05F92130A9002094C854CB70DF37FD9
:101C3000930AC00263788B0E5A86A2852685EFE050
:101C40003FB02A8B3389A40063768500830709009F
:101C5000638747151018B30564414A8502D8EFE041
:101C60007FD5631F850B83278D0003264D038325B6
:101C70000D033E853EC8EFE0BFACC247232AAD024C
:101C800023079D03AA97038707006E888147630790
:101C900047016A85EF00E07AAA872E8803230D05A5
:101CA00083234D054256CA856A8542CE3ECC1AC86A
:101CB0001ECAEFF0BF904243D243E2477248AA8661
:101CC0002E871E869A856A85EFF01F8383270D0372
:101CD00003298D0003264D03BE854A853EC8EFE0EB
:101CE0003FA6C247232AAD02637AF5002A998307EB
:101CF0000900639557010505232AAD024256A285C6
:101D000026855A96EFE0DFA32A8BE37585F2B38729
:101D1000A40083870700E39F57F1130B150019BF39
:101D2000636F8B065A86A2852685EFE07FA1637BD1
:101D30008500B387A400038707009307B0076313E8
:101D4000F700050591471306F4FFB385A400098E3B
:101D5000A307FD026A8549312A84AE84EFE0FF962D
:101D600001E98347FD02C18B81E70144B704F37F9A
:101D70006A85EFE09FB5824723243D0123287D0338
:101D8000232AFD02A247A307FD029247A306FD02F4
:101D9000B2472320FD0485472307FD0295BB0307B7
:101DA000090093079002E31FF7F6050BA5BF6A85AC
:101DB000EFF0AFBAE30795E06A85EF0080682E8602
:101DC000AA856A85EFE0BFBB03270D068327CD05F3
:101DD0002AD82EDA210763FCE700B7C500009385F7
:101DE000C5226A85EFF08FE32A84AE8469B70325A4
:101DF0008D05E117232EFD0421460C183E95EF407A
:101E000090126A850509EFF04FB5E31645DB23070D
:101E10005D0355B318415C4103A3060083A346004C
:101E200098C2DCC22320650023227500A10645BBB1
:101E30000147B707F03F5686DA86930540086A8562
:101E4000EF106057F1B10147B707F03F5686DA86C9
:101E500093055008EDB74A85D285EFE0BF859947D5
:101E60006310F50213341900B704F67F55B14A87A1
:101E7000D2875686DA86CE856A85EF10C05379B14F
:101E80002285A685EFE01F838947AA8A631FF50C88
:101E90004A85D285EFE01F822A8B6318550D3410D6
:101EA000A28526866A85EFE09FA05286AA8A7410D2
:101EB000CA856A85EFE0BF9F930710072A8A639956
:101EC000F9042256B25781456A853E96EFF00FEF2E
:101ED0002A84AE84EFE00FFEE31C65C31418A285CC
:101EE00026866A85EFE0BF9C2A8903258D05225648
:101EF000B30555014A95EF40700EA25703258D0595
:101F000032563E99B30545014A95EF40300D09B16F
:101F10009307A0076391F9022256B2570144E315D3
:101F2000F6F403258D05B30545015695EF40407D38
:101F30001334150015BF9307B0076393F9022256B7
:101F4000B2570145631BF60003258D05B305450116
:101F50005695EF40E07A133515001344150029B764
:101F6000B7C500009385852385B69387A9F993F7B4
:101F7000F70F1947636EF7004A85D285EFE08FF3BC
:101F800095476304F502B7C50000938545242DBE2F
:101F900093074006638BF9009547E396FAFE4A855E
:101FA000D285EFE02FF1E31055FF9387C9F993F73E
:101FB000F70F6947228BA68B6367F72231678A0781
:101FC00013078717BA979C438287014681464A8543
:101FD000D285EF30A07511E5B7C500009385452582
:101FE000E5B44A86D2862285A685EF30E01839BE50
:101FF0004A86D2865A85DE85EF300018EF40004FC2
:10200000EF4040554A86D286EF30300F2A86AE86A2
:102010005A85DE85EF30F059D5BC4A86D2862285B6
:10202000A685EF30900DDDB44A86D2862285A6853E
:10203000EF209021E1BC4A86D286D9BF2285A685B1
:10204000EF40C04A2A84D2854A85EF40204A218D3C
:10205000EF40405065BC2285A685EF4020492A8488
:10206000D2854A85EF408048618DDDB72285A685FF
:10207000EF40C0472A84D2854A85EF402047418DF2
:10208000C1BFB70500804A84B3C4450151B44A8535
:10209000D285EF40A0451345F5FF5DBF014681465F
:1020A0004A85D285EF30806861B52285A685EF40EC
:1020B000E0432A84D2854A85EF4040433315A4008B
:1020C00041BF2285A685EF4060422A84D2854A8599
:1020D000EF40C0413355A440A5BF4A85D285EFE00B
:1020E0006FDDA1476307F500B7C50000938505269E
:1020F000E1BAB707000103258D00FD173377F9001A
:102100003A9509476399EA02220A93558901B36512
:10211000BA0037C60000994613060627FD8DEFE08A
:10212000AFEB01CDA2856A85EFE08FF409817D15C3
:10213000EF404049E1BA63870A00B7C500009385C4
:10214000852759B2220A135789013367EA00AA8604
:102150007D8FA28526866A85EFE0CFFD5DC52A8446
:10216000B704F17F75B22285A685EF4020382A8416
:10217000D2854A85EF408037098C13341400EDB1C5
:102180002285A685EF4080362A84D2854A85EF4095
:10219000E035098C33348000C1B922854A86D28665
:1021A000A685EF30206A132405007DB922854A8672
:1021B000D286A685EF3000691324150075B12285FB
:1021C0004A86D286A685EF30005D3324A00069B927
:1021D00022854A86D286A685EF30E05B1345F5FF5F
:1021E0001354F50151B1B7C500004E866A85938539
:1021F000C528EFF0AFA26FF07F91014481446FF0EA
:102200003F914A84D2846FF0BF900144B704F37FBA
:102210006FF01F909387B9F993F7F70F1547E361B4
:10222000F7C631678A071307471EBA979C43828710
:1022300093073008E39DF9C203258D0593F7CAFF84
:10224000A10721460C183E954AD852DA5684EF4031
:10225000804DDA846FF0DF8BEFE24F8E41112A84DC
:10226000EF10E00E2A89AE849309E007054A4A85FB
:10227000A685EFE08FC511E52285EFE01FEE63082C
:1022800035034A85A685EFE04FC409ED8349F40282
:10229000130AF007854A2285EFE03FEC630345050A
:1022A000A30734034A85A68541016FE06F8C23079D
:1022B00044032285834AD402EF1060092AC62EC443
:1022C000EFE0AFC0A247324711E94A86A686D6851D
:1022D0002285EFF00FF82A89AE8451BF3A89BE8477
:1022E0004DB72686CA85230754032285EFE02FE9E0
:1022F000AE842A89AA8526862285EFE06FDE834791
:10230000F40201E993E71700A307F4022285A93735
:1023100059B7858BE5FF228581372A89AE84A5BF11
:10232000EFE2CF812A840D3F2A89AE89EFE0EFB931
:1023300009ED8344F402130A0008854A2285EFE080
:10234000DFE163084501A30794024A85CE856FE06B
:102350002F824E86CA85230754032285EFE02FE2A1
:10236000AE892A89AA854E862285EFE06FD78347FA
:10237000F40201C993E71700A307F40222854D3741
:1023800075BF858BE5FF2285613F2A89AE897DB7C0
:10239000EFD2DFFA2A84930A2008054A130B1008AB
:1023A0002285BD3F2A892285AE89EFE01FDB6314B9
:1023B00055074E8623074403CA8522858344F402C9
:1023C000EFE0EFDB2E86AA852285EFE06FD121C9F1
:1023D00022857D3F8347F4022A89228593E71700EF
:1023E000A307F402AE89EFE05FD793071008630EEE
:1023F000F500B7C50000A30794029385C52922857F
:10240000EFF0CF812A89AE8939A0230744032285C2
:102410004137A30794024A85CE856FD07FF5834765
:10242000F402228593E71700A307F402953722856B
:10243000EFE0BFD2E31F65FB23074403A307940229
:1024400085B7EFD2BFEF41112A8499372A89AE842C
:1024500093093008294A854A4A85A685EFE0EFA608
:1024600031E52285EFE07FCF630A35018347D4024F
:102470009387C70793F7F70F636AFA02230754039A
:102480002285034BD402753F2AC62EC4EFE0EFA38A
:10249000A247324711E94A86A686DA852285EFF0FF
:1024A0004FDB2A89AE844DBF3A89BE844A85A68512
:1024B00041016FD0FFEBEFD21FE78344F502854760
:1024C0004111AA8B85882307F502054A814C370DF7
:1024D000F37F8549130CF0085E85EFE01FC889473C
:1024E000630AF500B7C500005E859385C529EFE056
:1024F000FFF295A823874B035E8583AD8B0303A969
:10250000CB0303A48B00EFE01F8793073008668B93
:10251000EA8A631BF50023874B035E851D372A8BF0
:10252000AE8AEFE08F9A31E199C85E85EFE0FFC295
:1025300095476314F508014BB70AF37F3DA083A5C7
:102540000B0503A64B056E944A87A2865E85EFE0D5
:102550006FBE0DC1B7C50000A2864A869385852C43
:102560005E85EFE0BFEB2A8BAE8A5A85D6854101A6
:102570006FD03FDF03A30B0583A34B054A86A285DB
:102580005E851AC41EC6EFF06F8356862AC02EC21F
:102590005E85DA85EFE0AFBE2243B2438246124742
:1025A000AA872E881E869A855E85EFE0FFF42A8B27
:1025B000AE8AEFE08F9135D94DBF5E85EFE0FFB970
:1025C000E30B35F75E85EFE05FB9E31D85F1238707
:1025D0003B0319B7EFD23FD538517C5141112A84C2
:1025E00063F4E700EFF08F982285EFE01FB79307C1
:1025F000D0036308F52063E0A7069307600363E157
:10260000A702930730036375F502A1476303F51E24
:1026100093072003630BF5082285EFF09FE2EDA6F8
:102620009307A00363E4A70293078003636DF50497
:1026300014441C5C505CB7C50000BE969385852E83
:102640002285EFE0BFDD2A89AE8451A09307C00345
:10265000E300F5FED1B793072004630AF50A63E9A6
:10266000A7009307F0036308F50AE373F5FC6DB761
:10267000930740046300F534E36CF5FA9307D00444
:10268000E3ECA7F875B78347F40213F7170015EBCF
:1026900013F7270093E717001DE3B7C500009385E4
:1026A00005302285EFE09FD779BF8347F40213F707
:1026B000170001EB13F7270093E7970079DFA307D3
:1026C000F40285472307F4020149B704F37F22850A
:1026D000EFE0BFA89547630FF5322285EFE0FFA733
:1026E00085476309F5322285EFE03FA7A5476303DD
:1026F000F532B7C50000938585312285EFE01FD202
:102700002A89AE844A85A68541016FD09FC522855E
:10271000EFF07FDA0DBF8544230794022285EFE0B6
:102720008FE599476307F500B7C500009385C52974
:102730008DBF230794022285EFF0BFD02E86AA8595
:102740002285EFE0CFA32A892285AE89EFE0FFA0A2
:102750009D47E31BF5FC4E8623079402CA8522851C
:10276000EFE00F988347F402AA8993FA170009E56E
:1027700093E71700A307F40222851D2E2A89AE8451
:10278000639C090063970A008347F402F99BA3073F
:10279000F4020149B704F37F034BD402832B4403B3
:1027A000054A230744032285EFE0EFDC9307B003DB
:1027B000232A7403A3066403E31BF5F023074403F1
:1027C0002285EFE09F99230744036388090083472C
:1027D000F40293E71700A307F4022285D12CE384C7
:1027E00009E6E3960AEE8347F402F99BA307F40295
:1027F000F9BD8345F402228593C5F5FF8589392CFF
:1028000099B58344F4020147B707F37F13F9140025
:102810003AC43EC6631509002285EFE0BFD23000FE
:102820009305D0032285EFE01FD66309050E300023
:1028300099452285EFE03FD56302050E2285EFE042
:10284000DF919547631DF50A300095452285EFE03D
:102850009FD36305050C8347F4022285032A4403B2
:1028600093E71700A307F402EFE03F8F9547631E3D
:10287000F50A300095452285EFE0FFD045C122855D
:10288000832A4403EFE07F8D9D476319F50A3000EA
:102890009D452285EFE03FCF51C12285032B4403A4
:1028A000012C3000EFD03FFB35E9832B44038549F1
:1028B000154C9D4C6310090CA3079402232A440372
:1028C000230734032285EFE00FCB6311850983478B
:1028D000F402232A64032307340393E72700A307A2
:1028E000F4022285F1223000EFD0FFF641CD22859F
:1028F000EFD0BFFDA30794022249B244C9BB228591
:10290000EFE0BF8593072004631DF5002285EFF0FB
:102910009FBA3000EFD03FF4E30805F2E31C09FC56
:10292000F9B72285EFF0FFB1EDB72285EFF07FB167
:102930003000EFD05FF2E30E05F2CDB72285EFF065
:102940005FB03000EFD03FF139D1C9BF2285EFF041
:102950005FAF2E86AA852285EFE06F8230002A8D38
:10296000AE8DEFD05FEF41F5EA856E862285EFD020
:102970003FF731FD9547232A7403A306F40223078A
:10298000040269BF8347F402A18BEDF7A307940209
:10299000232A5403230734032285EFE0CFBDE30D40
:1029A00095F12285EFF0FFA93000EFD0DFEAE305D3
:1029B00005F035BF8349F40285472307F40293F7F6
:1029C000590091E7B7C500009385C530D9B9228574
:1029D000EFE0AFF895470149B704F37FE309F5CE7F
:1029E0002285EFF01FA62E8693F91900AA8522856D
:1029F000EFD0FFF8639A09001C585CD88347F402B3
:102A000093E70701A307F4022E86AA852285EFD05B
:102A10001FF715B985472307F402EDB1EFD23F91B7
:102A20002A842E8A99C1EFE0FFB185472307F4027B
:102A30000149B709F37F854A254BA14B130CF003DD
:102A4000930CB004154D2285EFE02FF16309550575
:102A50002285EFE08FF0630465054A85CE85EFD0CF
:102A6000DFC615ED22858344D402EFF0BFB62A8974
:102A7000AE89EFD09FC561F9E38774FDE38584FDDE
:102A8000E38394FD8347D402E38FA7FBB7C500001F
:102A9000938585312285EFE07F982A89AE89630589
:102AA0000A002285EFD07FE24A85CE856FD0BF8BAA
:102AB000EFD27F8A2A84EFE04FEAA147631CF5003A
:102AC0008345F402228593C5F5FF8589EFF01FF554
:102AD0006FD0BF8A2285EFF0FFAF2E86AA852285B0
:102AE000EFD0FFE923070402E5B7EFD2DF8301113E
:102AF0002A8CEFE08FE699476314F5040549230714
:102B00002C036285EFF0FF932A84AE84EFD0FFBBE5
:102B10001DE16285EFE06FE49D47630CF500B7C5EA
:102B200000009385852A6285EFE05F8F2A84AE845A
:102B300019A023072C032285A68505616FD07F820B
:102B40006285EFE08FE16285EFD01FB983278C06A5
:102B500091CB03270C0063F7E700B7C5000093850E
:102B6000452BD1B78347DC02054423078C0221475C
:102B7000638CE7066367F70209476385E7266368A6
:102B8000F700F5C3B7C500009385C52B69BF0D4796
:102B90006387E7041147E397E7FE6285EFE09FA8AC
:102BA00071B71307F0046380E726636EF70013071D
:102BB000E003638DE7141307E004E395E7FC0144A9
:102BC000B704F37F8DBF130700056382E724130763
:102BD00010050144E398E7FAB704F67FA9BF032480
:102BE0008C048324CC0481BF034AFC02137A1A00AC
:102BF00063100A08914670088145628502CEEFE0B5
:102C00003F882A84AE842285A685EFD01FAC05F5C7
:102C100085472307FC02A54B914C854A130D1008EC
:102C2000930DF0086285EFE04FD3630E750783477D
:102C3000DC0209476392E70481490149631E0A00E7
:102C400083258C0083278C030326CC036285BE95E5
:102C5000EFE0DF96AA892E8923075C036285EFE007
:102C60008F916305A503B7C500009385C52965BD90
:102C70000144B704F37F41BFE39797FF81490149BE
:102C8000E31C0AFC6285EFE0FF99E9B723075C03C8
:102C90006285EFF00FFB2A8B63010A026285EFE089
:102CA000CFCB631D75056285EFE02FCBA547E31CF5
:102CB000F5FA85472307FC02BDBD2EC6EFD0FFA065
:102CC0003246631805144E85CA85EFD01FA005E56E
:102CD0003246DA856285EFD09FCAAA872E88CE86D3
:102CE0004A87A28526866285EFE01F81AA892E8900
:102CF000EFD0BF9D45D54E84CA8435BD6285EFE0D7
:102D0000CFC5E312B5F723075C0329BF62850349EA
:102D1000FC02EFE04F8699476305F500A3072C03FB
:102D200099B783294C0323078C02854A01449D44AB
:102D3000094B054A930BF0086285EFE00FC2630D63
:102D4000550315C46285EFE04FC1E31965FD230704
:102D50004C036285EFE02F82630095026285EFE00D
:102D6000CFBFE31D75FB23074C030544F1B7628514
:102D7000EFE0AFBEE31895FC6285EFE00FBE9D4724
:102D8000E31EF5F8054A23074C036285EFD0BFFE2A
:102D9000A147E315F5F88347FC0223070C028145A0
:102DA00093E71700A307FC026285EFF03FC72A8470
:102DB000AE84EFD09F9101C5A3072C03ADBB0326C2
:102DC0004C0383258C00FD19A3072C0333063641E1
:102DD000CE956285EFE08FFE2A8423074C03B7046B
:102DE000F77F91BB0324CC0383278C039354840087
:102DF00013970401A20762044183A183B704F87FFB
:102E00005D8CD98C0DBB0144B704F47F2DB3054410
:102E1000E1B35A84B28405B3EFD2EFD041112A8CCA
:102E2000EFE0AFB3930780066309F5048347DC0244
:102E3000938777F993F7670FA9C36285EFF0FFCA0D
:102E40002A89AE89EFD07F882DCD4A85CE85EFD0F7
:102E5000DF8725E16285EFE04FB08345DC0205475F
:102E60009387A5F993F7F70F6365F7042307EC023F
:102E7000814701474A86CE8605A80344DC029307B2
:102E80002007630DF402930710076314F400130482
:102E9000B00685472307FC026285BD3FAE872A87BF
:102EA0000146B706F37FA2856285EFE09FBA2A89C3
:102EB000AE894A85CE8541016FD0AFCA1304C006E2
:102EC000C9BF4A85CE85EFD0EFFEA1476313F50455
:102ED0008347FC02858BD9EF370400017D14B3775B
:102EE0008900A20983248C001359890133E929013F
:102EF00003264C0583290C05BE9433748900228770
:102F0000A686CE856285EFD0FFA215CD2A89B709A6
:102F1000F17FC16A370B0001CA844E841D4AFD1A35
:102F20007D1BB7CB00006285EFE02FA399476306B6
:102F3000F5046285EFE06FA293074006630FF50288
:102F40002689A28919B7638B090093854900628598
:102F5000EFD01F92AA893706F07F55B7B7C500009A
:102F6000A6862286938545336285EFE02FCB2A899A
:102F7000AE8945B70149814969BF0347DC02930720
:102F800040066314F70285472307FC026285EFF0D1
:102F9000DFB5AE872A872686A2869305400662851E
:102FA000EFE03FABAA842E84BDBF8349FC02032916
:102FB0004C03854C93E71900A307FC0285472307C0
:102FC000FC02130DF0088147854D62853EC6EFE097
:102FD000CF98B247630B9501A1C76285EFF06FC62A
:102FE0006285EFE08F97631345056285EFE0EF960A
:102FF00063074505A3073C039385CB296285EFE072
:10300000EFC12A89AE894A85CE85EFD00FECE31E49
:1030100005E24A87CE872686A2869305500641B7E9
:103020006285EFE08F93E31A45FBC1B76285EFE05D
:10303000CF92E311A5FD2307BC03854779B703268B
:10304000CC038547A3073C033305C90003264C0383
:1030500033796901B709F87F098E93568600B3F674
:10306000560162062307FC0233692601B3E9D90041
:1030700059BFEFD2AFAC41112A84EFF0FFD92A89B2
:10308000AE849309E006054A854A4A85A685EFD0B5
:10309000CFE339E52285EFE04F8C630A35018347A2
:1030A000D402938717F993F7F70F636BFA0223079C
:1030B00054032285034BD402EFF01FD62AC62EC438
:1030C000EFD0AFE0A247324711E94A86A686DA85FB
:1030D0002285EFE01F982A89AE8445BF3A89BE84D5
:1030E0004A85A68541016FD0AFA8EFD22FA5411127
:1030F0002A89EFF01FF8AA842E84930A1007130A76
:103100002007054B2685A285EFD02FDC11E94A85E3
:10311000EFE0AF848349D902630955016387490110
:103120002685A28541016FD0AFA4230769034A8594
:10313000EFF03FF42AC62EC4EFD02FD9A247324772
:1031400011E92686A286CE854A85EFE09F90AA8463
:103150002E844DBFBA843E84E1B7EFD24F9D41111A
:103160002A84EFF09FF82A89AE84130A4007930A55
:10317000300793095007054B4A85A685EFD0EFD459
:1031800005E12285EFD07FFD630145032285EFD065
:10319000DFFC630C55012285EFD03FFC630735014E
:1031A0004A85A68541016FD00F9C230764032285C1
:1031B000834BD402EFF07FF32AC62EC4EFD0EFD0BA
:1031C000A247324711E94A86A686DE852285EFE0CE
:1031D0005F882A89AE844DB73A89BE84D1B7EFD2D1
:1031E0000F9541112A84EFF05FF72A89AE84130A04
:1031F0006007930A7007130B800793099007854BAC
:103200004A85A685EFD06FCC0DE52285EFD0FFF47F
:10321000630645032285EFD05FF4630155032285E1
:10322000EFD0BFF3630C65012285EFD01FF3630776
:1032300035014A85A68541016FD0EF9223077403BB
:103240002285034CD402EFF05FF12AC62EC4EFD0E2
:10325000CFC7A247324711E94A86A686E285228572
:10326000EFE02FFF2A89AE8461BF3A89BE84D1B7CF
:10327000EFD2CF8C41112A84EFF07FF62A89AE84F9
:10328000130AA0079309B007854A4A85A685EFD09F
:10329000CFC319E92285EFD05FEC630C450122858D
:1032A000EFD0BFEB630735014A85A68541016FD09A
:1032B0002F8C230754032285034BD402EFF03FF2F7
:1032C0002AC62EC4EFD06FC0A247324711E94A8602
:1032D000A686DA852285EFE0CFF72A89AE8475B716
:1032E0003A89BE84D1B7EFD26F8541112A89EFF0B8
:1032F0003FF8AA842E849309C007054A2685A28533
:10330000EFD0AFBC11E54A85EFD03FE5630735014B
:103310002685A28541016FD0AF85230749034A85E1
:10332000834AD902EFF0DFF42AC62EC4EFD0EFB9FA
:10333000A247324711E92686A286D6854A85EFE064
:103340004FF1AA842E845DBFBA843E84D1B7EFC208
:10335000FFFE41112A89EFF01FF9AA842E849309F8
:10336000D007054A2685A285EFD02FB611E54A85FC
:10337000EFD0BFDE630735012685A28541016FC00E
:103380003FFF230749034A85834AD902EFF0BFF57F
:103390002AC62EC4EFD06FB3A247324711E9268662
:1033A000A286D6854A85EFE0CFEAAA842E845DBF47
:1033B000BA843E84D1B7EFC27FF8BE89B7776E6F0B
:1033C0000111938717273ECAB7777475938707371C
:1033D0003ECCE17793C7C7D7FC869307E007230F5E
:1033E000F1001C10BE9583CA05F73284B28536867B
:1033F0002A8AB6843A89EFD08FD8AE864A87CE879C
:103400002A86D6855285EFE0CFE483278A052AC431
:103410001375C4FF21052EC621462C003E95EF30C2
:1034200080302285A68505616FC09FF45C4111053F
:10343000F19B3E958280EFC21FF22A84EFF01FFFBE
:1034400000C16FC09FF3B7670020B76600201387E5
:1034500007D7138606D823A807D6232207002324DC
:1034600007002326070010CF50CF232007021305A3
:103470000706938707D7938606D8130800022322EE
:103480000702BE85014623A2D50805069105E31C67
:1034900006FF110793870708E313A7FE8280417791
:1034A000698FAA871305000219E3C2074145370750
:1034B00000FF7D8F19E3A2076115370700F07D8FAC
:1034C00019E392077115370700C07D8F19E38A074A
:1034D000791563C307007D158280EFC2DFE793078C
:1034E000F00741112A8463EAA700135425400145DF
:1034F00088C100C241016FC05FE832C62EC4EFF040
:103500001FFA9307A5FF3354F440134404026515D2
:103510003246A245F1BFEFC21FE42A84484141115F
:1035200070002C007199EFF05FFBA246B24537673F
:10353000002093975600AE9793870702130707D78B
:103540008A07BA97C84337660020130606D808C40E
:1035500050C440C51053C0C385473395D700A1065A
:10356000498E8A0610D336975443B397B700D58F48
:103570005CC341016FC07FE0EFC25FDC37640020B5
:10358000832604D78D47638AF606130704D781473D
:10359000130904D763CDD704E11513773500F199EA
:1035A0009307003231E337070040938645FF5117F8
:1035B00093071032636AD70293E515009309C5FF9C
:1035C0000CC1AA844E85EFF01FF54E85EFF0BFE6E3
:1035D00089475CC1832704D7138717008A07CA97D6
:1035E000C4C32328E4D681473E856FC07FD8110726
:1035F00010436307C500850771BF93072032EDB7FD
:1036000093073032D5B7EFC21FD541112AC62EC459
:10361000EFF07FE3A2453245EFF01FF641016FC0A6
:10362000DFD5EFC2BFD15C4D184D0449A9495CC339
:1036300098C3232805002306050003C98405630AEF
:103640003901CA852685EF000062238C34056FC0DE
:103650003FD24C2983C714022A84E38AB7FE268509
:103660001925230A2401E5B7EFC2FFCE2A84EFF023
:103670005FFB9145130544007D286FC01FD09C411E
:10368000938787FB138787046314B7002E8739A0BD
:103690000346150283C617026371D602F447130668
:1036A0008504F0C738C574C590C2834705026CCD48
:1036B00093E727002300F5028280BC47D1B71C4165
:1036C0006309F500138787FB294509C703C597FDE3
:1036D0008280294582807C4538455CC398C38347F6
:1036E0000502232E0504F59B2300F5028280EFC21C
:1036F0009FC6784534456C4DD8C214C3EFF03FF8EF
:103700006FC0BFC7EFC23FC5834705022A84898BBC
:1037100081C72CD1EFF03FFC83470402858B81C722
:103720002285EF00A07283470402918B99E32285E2
:1037300015226FC09FC4EFC21FC21C41AA842E89EC
:103740008043138587FB130484FB930785046394EC
:10375000F4006FC09FC2CA85EFF0DFFA3C442285B7
:10376000138487FBDDB793575500D10737670020D7
:10377000130787B18A07BA971346F5FF8546B396B4
:10378000C6009043D18E94C3834747056374F50008
:10379000230AA7048280B7670020138787B1834775
:1037A00047058E07BA978843130585FB82803767E4
:1037B0000020930787B1A946238AD704130787B14E
:1037C000938607059CC3DCC3A107E39DF6FE23286F
:1037D00007048280EFC29FB62A8903451502B767A6
:1037E0000020938487B193193500CE9498401384B8
:1037F00087B16394E400EFF01FF7B30734019443FB
:1038000013078904D8C22324D9042326990498C312
:103810006FC01FB6EFC29FB22A8903451502B76772
:103820000020938487B193193500CE949840138477
:1038300087B16394E400EFF01FF3B3073401D8437A
:1038400093068904D4C3232499042326E90414C3CA
:103850006FC01FB2EFC23FB083A741850347150277
:1038600083C717026316F700EFF0DFFA6FC0FFB0EF
:10387000EFF05FF6E5BFEFC21FAE2A84952A25E977
:103880007C44384403461402B76400205CC398C3E8
:10389000138784B193173600BA979843938484B101
:1038A0006311F70293575600D1078A07A6978546FA
:1038B0001347F6FF3397E60094431347F7FF758FDE
:1038C00098C383C744056394C702B76700200144C7
:1038D000938787B631A0130404021374F40F910781
:1038E000884375D9EF00700B2295238AA4046FC01A
:1038F000DFA801A003A7C1858547631BF70083C725
:1039000081859306900F63E5F6008507238CF1848B
:10391000828003A7C18585476314F704EFC2BFA364
:10392000EF00807983C781852A8489E7EF00807959
:103930006FC0BFA4FD1793F7F70F238CF184FDF739
:1039400083C74186E5F7EFF01FE523A0A18683A793
:1039500041856314F5002285D1BFEF002078E5BFD3
:103960008280EFC25F9F83A7C18585441305501FE6
:10397000638D9700EFF03FE223A0A18623AAA184E4
:1039800023AE9184EF00407601456FC01F9F03A5D1
:10399000C1857D1513351500828003A7C185854734
:1039A000631DF70283C7818503C74186D98F95E7D9
:1039B000EFC27F9AEF0040702A84EFF0DFDD23A092
:1039C000A18683A741856317F5002285EF00806FEC
:1039D0006FC0BF9AEF00C06FCDBF828003C5418624
:1039E0003335A000828003C581853335A0008280F5
:1039F000B77700209387879F1D8D13351500828030
:103A000083A741853385A740133515008280EFC217
:103A10009F9403A8418483A7018437460000B7C55B
:103A20000000377500208148254781461306268F00
:103A3000938585501305859F2D206FC01F94EFC27D
:103A40009F91EF00606CEFF09FD6377500208D6579
:103A5000130505A7EFF03FBB19E1EFF05FFB6FC067
:103A6000DF91EFC2BF8D2A842E8B3289B68ABA8449
:103A7000BE89428AEFF03FF769E91305C0445DC88B
:103A8000630A090A6388090A9307F0071305407758
:103A900063F2470BA5476391F40A2285EFF05FF5C7
:103AA00051CD930704043CC07CC0930784043CC4FC
:103AB0007CC4930704053CC87CC8A947230CF404C4
:103AC00083A601811307C40223200406232E0404C5
:103AD0002322040623240406D8C254D43746000007
:103AE0009386018123A8E18014D85287CE861306DD
:103AF000E6C2D6854A85EF00A0643D46DA8508C057
:103B0000A3009402232C2401232E540123223403E6
:103B10002324440313058400EF40E015712BAA848D
:103B2000230004022285EFF0FFCE2685612BEFF003
:103B30001FE601E96FC0DF83E3F597F61305F07622
:103B4000D5BFEFF09FE50145F5B713050019DDB7C7
:103B5000EFC2CFFE2A84EFF01FE99307001911EDA1
:103B600019E003A441852285EFF09FE911E9228540
:103B7000EFF01FE89307D07611C93E856FC04FFF65
:103B8000EFF0DFE59307406A7DD1C5BF35233C48A0
:103B900013090405AA89631DF9068347040281E716
:103BA0002285EFF05FCD83470402858B99C3228580
:103BB000712C83470402898B81C72285EFF0BFB146
:103BC0001C5858544E855CC398C39307C4025CD4F8
:103BD0001CD8930704043CC07CC0930784043CC4F5
:103BE0007CC4A947230CF404A1472300F402232832
:103BF0002405232A240523200406232E040423223B
:103C00000406232404067D29EFF03FD98147B5B788
:103C10008443138587FEA11493078501E30FF9F60A
:103C2000EFF09FA49C4C2685938487FEF5B7EFC2E6
:103C30008FF20145EFF0DFF16FC02FF4EFC2AFF16B
:103C4000EFF07FDA19ED8D29AA8403A54185EFF005
:103C50009FC203A54185EFF0FFBB2685A521EFF0AC
:103C6000DFD36FC08FF1EFC26FED2A84AE89EFF022
:103C70009FD75DE51305C04405C0A1471305F07645
:103C800063EC3701152983471402AA8A6398370128
:103C90001529EFF09FD001456FC08FED2448130A1E
:103CA0000405631F9A004E898347040213F7270017
:103CB00021C3A30024032285EFF07FA35685C9BF4B
:103CC000A1142949938784016317FA00E37D39FD24
:103CD000230C3405D1BF13854400EFF05F9EAA8703
:103CE0006373A900CA87844C13F9F70FA114D9BFD5
:103CF00013F7170001C7A3002403C9B7E1F3228516
:103D0000EFF07FB72285A3002403EFF07FCF09C532
:103D10002285EFF03FAC5DB72285EFF0BFAF79BFF2
:103D20001305001995BFEFC26FE12A84AE84EFF04E
:103D30009FCB9307001901EDEFF05FCA9307406A2C
:103D400019E5B367940099E7EFF05FEF81473E858F
:103D50006FC00FE2FD576316F40093075006E38827
:103D600084FE992EAA8903A54185A285268611285D
:103D700003A54185EFF03FB04E85A926EFF0FFC1C6
:103D8000F1B7EFC24FDD41112A842EC632C42D2671
:103D900083A78181B2452246938707FC0CDC50DC67
:103DA0008146014713838181138E070463116E06D8
:103DB000B388D540B3BE15013308E6403308D84177
:103DC000232C1403232E040363016E02B385B64033
:103DD000B3B6B600118F158F945FD05FB695B3B6AA
:103DE000D500329736978CDFD8DFF843930604046A
:103DF000F4C32320C40578C014C3E9248347040214
:103E000093E717002300F40241016FC00FD783A886
:103E1000870383AEC703B69833B8D800BA9E7698A6
:103E2000E36806F96314C800E3E415F9639A150121
:103E300063180601034F140283CE1702E36ADFF70B
:103E4000BC43C6864287938707FCB9BFEFC2AFD099
:103E50002A849D243C40130704046388E7041387E5
:103E600007FC21C7138781816381E704145C8328E1
:103E7000C403F9553383D54003A6C7FF33B86500A3
:103E800093C5F8FFB385054103A787FF63EAC50221
:103E90006314B6006366E302BA9633B7E60046964B
:103EA000329723ACD7FE23AEE7FE7840D8C31CC3BD
:103EB000112C83470402F99B2300F4026FC0EFCB5F
:103EC0007956FD5623ACC7FE23AED7FEF9BFEFC22D
:103ED0008FC841112A842EC6C52283A7818683A656
:103EE000C186B24533868700B337F600AE96B697E3
:103EF00023A6F18683A7818123A4C186938481812F
:103F000063969700C12241016FC02FC703A7C7FF67
:103F10002A8983A687FF138507FC63EFE5026314F4
:103F2000B700636BD40280438146014723ACD7FEC0
:103F300023AEE7FE130404FC93070504638897028D
:103F40001C5D585DD98F9DE38945EFF0AFFB3C4088
:103F50002285138407FCCDB733848640B3B6860030
:103F60000D8F158F23AC87FE23AEE7FE4A8559BF20
:103F7000EFC26FBEEFF0BFA109C505458145EFF067
:103F80001FF56FC08FBF21651305058073150530C0
:103F9000828073100530828037F700E01C4386076B
:103FA00085831CC3828037F700E01C43B70600807E
:103FB000D58F1CC38280EFC20FBAEFF0DFFE6FC057
:103FC000CFBBB7F700E023A0070023A2070081467C
:103FD00094C70147D8C71306F5FF90CB8146D4CBD1
:103FE0003D4798C382801375F50FB7E700E023863D
:103FF000A7408280B7E700E041572387E740056785
:1040000023A0E710116723A0E7108280197182FEB8
:1040100086FC8AFA8EF892F696F49AF29EF0A2EE58
:10402000A6ECAAEAAEE8B2E6B6E4BAE2BEE042FE28
:1040300046FC4AFA4EF852F656F45AF25EF062EE38
:1040400066EC6AEA6EE872E676E47AE27EE08A82FC
:1040500003A1018216C0EFF09F9319C9EFF09F8969
:10406000B7F700E023A20700EFF09FF0EFF07F8AA0
:1040700002417670E6705671C6713672A67216737A
:1040800086737664E6645665C6653666A666166708
:1040900086677278E2785279C279327AA27A127B94
:1040A000827B726CE26C526DC26D326EA26E126FC8
:1040B000826F096173002030EFC2EFA9EFF0BFEC0F
:1040C0006FC0AFABEFC22FA9EFF0BFEC6FC0EFAA8C
:1040D000EFC26FA8EFF03FED6FC02FAAEFC2AFA7FE
:1040E000EFF07FED6FC06FA9EFC2EFA6EFC04F9169
:1040F000EFC26FA62A841305000FEFF0DFEE2285D2
:10410000EFF03FEC6FC06FA7EFC2EFA413870182FF
:104110001C438145F117F19B1CC3B707002003A680
:10412000871E83A6C180B707002003A5071E492369
:1041300023A8A184EFF0DFFBEFF0DFEB6FC0EFA36C
:104140003697719BB7E8EAAC2A8E130847F8130537
:1041500007F885462943938808D0930E0002B3C719
:104160006602110833EF660292078506B3E7E7019E
:10417000B3E71701232EF8FEE393D6FF8E8723269D
:10418000F7F8A167938707882324B7FA2324C7F891
:104190002322F7F82320C7F982804177698FAA8705
:1041A000014519E3C2074145370700FF7D8F19E339
:1041B000A2072105370700F07D8F19E3920711054B
:1041C000370700C07D8F19E38A07090563C607001A
:1041D00099C3050582800905828001A001A001A084
:1041E00001A001A001A001A001A001A001A001A0C7
:1041F00001A001A001A001A001A001A001A001A0B7
:1042000001A001A001A001A001A001A001A001A0A6
:1042100001A001A001A001A001A001A001A001A096
:1042200001A001A001A001A001A001A001A001A086
:1042300001A001A001A001A001A001A001A001A076
:1042400001A001A001A001A001A001A001A001A066
:1042500001A001A001A001A001A001A001A001A056
:1042600001A001A001A001A001A001A001A001A046
:1042700001A001A001A001A001A001A001A001A036
:1042800001A001A001A001A001A001A001A001A026
:1042900001A001A001A001A097C1FF1F938181741B
:1042A00017C10020130101D6178500001305057FF3
:1042B00097C5FF1F938505D51386018563FAC50051
:1042C0008322050023A0550011059105E3EAC5FEF0
:1042D00013850185976500209385059A6377B5005E
:1042E000232005001105E36DB5FEFD42739002BC6D
:1042F000FD4273904280B78200009382028073A0D7
:10430000023097C2FFFF938262D393E23200739030
:104310005230EFC08FAA97C2FFFF9382821F739023
:104320001234730020309C4513F7070113F8F7008F
:1043300001C7D8413368E8008E2113F7F50F39C360
:1043400018418146854E3D4F930F800293028004B1
:10435000214E3396DE00B3F8C5006311160393981F
:10436000260033131F011343F3FF3377E300B31821
:10437000180133E7E800639FF70550C98506E39A03
:10438000C6FD18C11307F00F6375B70454412146E9
:10439000854E3D4F930F800293028004414EB398A7
:1043A000CE0033F715016392E802131726000117B8
:1043B0003313EF001343F3FFB376D3003317E80052
:1043C000D98E639DF701232A15010506E319C6FD61
:1043D00054C18280E39457FA10C94DB7E39757FE52
:1043E00023281501DDB7371702405C439146B18B96
:1043F0006385D700A1466382D706B7177A009387F3
:1044000007201CC1371602405C4237070020130703
:1044100007009183BD8BBA9794231C41B3D7D70073
:104420005CC15442A1829D8ABA969422B3D6D70029
:1044300014C55442AD829D8A36971823B3D7E7003E
:104440005CC558423983937637001387418236978B
:104450001823B3D7E7021CC982805C4354434167E9
:10446000C983F98E37F7FF1F0327C770BD8B8907F4
:104470001316170163480600454601476392C702B9
:10448000C94739A809476389E7023D476388E702BE
:1044900041476388E702454601476393C700C14728
:1044A00085E6B746024083A60680C18A8DC6B71648
:1044B0007A009386062025A00147D9B70547B5475E
:1044C000C5B70147BD47E9BFB7160240D4421396AE
:1044D000E600E35E06FCB7163D0093860690B387C0
:1044E000D7021CC105D31C41858321BF99C537174D
:1044F00002401C4F5D8D08CF8280B7170240984F55
:104500001345F5FF798D88CF8280EFB2DFE416295D
:10451000F577FD17F58FF621DA257971D58F1EA96C
:104520005625FD779387379FF58FD6212A842EC68F
:10453000D58F9625D58FB625D58F5EA55E29C20766
:10454000C18393F7F7CFD98F5EA96808EFF0BFE971
:10455000B747014093870780B245631AF404A25716
:1045600056246547B387E702C206C186984163D2E5
:104570000604060752244206B3D7E7021307400693
:104580004186B3D6E702B3F7E70292066355060207
:104590008E0793872703B3D7E70213F77700B36734
:1045A000D700C207C1831EA445616FB01FDD9257BB
:1045B00045BF0A07C1B7920793872703B3D7E7021E
:1045C000BD8BD58FF9BF91C55E250967D98F5EA5D3
:1045D00082805A25F977FD17F98FD5BF93F5F51F1E
:1045E0004EA182800A216D8D3335A0008280EFB20A
:1045F0009FD62A841165011185451105EFF01FEF43
:10460000930700207C82371501408D473EC44C0043
:10461000E147130505803EC6EFF0FFD022C83744BE
:104620000140B70708000C08130504803ECC02CAFD
:10463000231E0100EFF07FED854513050480EFF0A8
:104640009FF805616FB07FD3EFB25FCFB7440140F1
:10465000AE893289014493840480634524014A85EC
:104660006FB01FD1930500042685EFF0BFF77DD909
:10467000B38789008385070026850504C205C181AB
:10468000EFF0DFF5D9BF138781821C43B7A6002066
:10469000938646C73E95636BD500B7B600209386D8
:1046A000060063E5A60008C33E858280FD57EDBF86
:1046B000B687B2882A832E88639D061463F9C50ADB
:1046C0004167636EE61AB70700016363F6349356D9
:1046D0008601E147178700001307C7EB36970347AA
:1046E0000700BA97130700021D8F19CB3398E50016
:1046F000B357F500B318E60033E807013313E500BC
:1047000013D608013355C80293960801C182935706
:1047100003013377C802B385A60242073368F70066
:10472000637AB80046989307F5FF636418016367DE
:10473000B8303E853308B8403357C802420313539C
:1047400003013378C802B386E60242083368680082
:10475000637BD80046989307F7FF636518017917C4
:104760006363D8003E874205598D8145828001E60A
:104770000547B358C702416763EAE80EB70700016F
:1047800063ECF82893D68801E147178700001307E8
:1047900067E0369783460700BE9693070002958F21
:1047A000E5EB939E08013387154113DF080193DE83
:1047B0000E018545935703013355E7033377E7032C
:1047C000B306D5034207D98F63FAD700C6971307FC
:1047D000F5FF63E4170163E6D7263A85958F33D753
:1047E000E703420313530301B3F7E703B30ED70301
:1047F000C207B3E7670063FBD701C6979306F7FFCD
:1048000063E51701791763E3D70136874205598DB0
:10481000828063E2D504C16763E2F604B707000152
:1048200063E4F61E13D786016148978700009387DB
:1048300067D6BA9703C70700130E00024297330EDC
:10484000EE40631A0E0C63EDB61C3335C5001345FC
:104850001500814582808145014582809307F00FD4
:1048600063F3D71C13D786002148C1B71307F00F95
:10487000C686E37C17F193D68800A14739B71307A2
:10488000F00FB286E378C7E493568600A14799B546
:10489000B398F80033D6D50013DF0801335EE60382
:1048A0003397F500B356D500558F939E080193DEDC
:1048B0000E013313F50093550701B376E603B38772
:1048C000CE03C206CD8E63FBF600C6961306FEFF2E
:1048D00063E4161763F2F616791EC6969D8E33D6DC
:1048E000E60393170701C183B3F6E6033385CE02CF
:1048F000139706015D8F637BA70046979307F6FF2A
:10490000636817136376A7127916469793150E01FD
:10491000098FD18D45B5B357E600B396C601DD8E3C
:1049200033D3E50013DF0601B357E303939E06017B
:1049300093DE0E013398C5013357E5003368070154
:10494000935808013316C6013373E303B385FE029F
:104950004203B368130163FBB800B6981387F7FFEF
:1049600063EAD80C63F8B80CF917B698B388B84066
:1049700033D7E803420813580801B3F8E803338338
:10498000EE02C208B3E5080163FB6500B6951308A3
:10499000F7FF63EDD50863FB65087917B695C20785
:1049A000416FD98F1307FFFFB3F6E70093D80701D4
:1049B000718F4182B38EE602B3856540B386C6022D
:1049C00013D80E013387E802BA96C2963386C8021E
:1049D00063F3E6007A9693D80601469663E2C50231
:1049E0006385C5003E858145828041677D17F98ECC
:1049F000C206B3FEEE003315C501F696E374D5FE8C
:104A00001385F7FF8145828013D70601414831BDE8
:104A100093560601C1477DB993D60801C147B5B386
:104A20008145054582803687014801B5428785BFAB
:104A30003E86E9BDBA871DBF328E4DB579154698C1
:104A4000D5B97915C69759BB3708100001117D18E3
:104A50003377B80026CA3378D80093D4450113D3EE
:104A60004601131E37004EC61357D5010E08935743
:104A7000D60193F4F47F1373F37F06CE22CC4AC899
:104A800093D9F50193DEF6013367C701131F350093
:104A900033E80701931F3600338E64406380D919D1
:104AA0006356C0136304031CB70680009307F07FAE
:104AB0003368D800638FF4369307800363C0C7352B
:104AC000FD4763CDC747130500023305C541B3D782
:104AD000CF01B316A8003399AF00DD8E3339200122
:104AE000B357C80133E926011D8F33092F41B3376E
:104AF0002F013306F7409317860063D40724370746
:104B000080007D173374E600630C042C2285EF10BF
:104B1000D031130785FF93070002998FB357F9002F
:104B20003316E400D18F3319E9006341972A330526
:104B30009740130615007D47634DC73813070002E1
:104B4000118FB356C9003319E9003397E700558F29
:104B5000333920013369270133D6C7008144937765
:104B6000790081CF1377F90091476308F7001307A5
:104B70004900333927014A963A899317860063D64C
:104B8000071C138514009307F07FCE856304F5207E
:104B9000B70780FFFD17F18F9398D701135939009C
:104BA000A607B3E82801B1831375F57F9396C70074
:104BB0005205F2406244B182FE05C98ECD8ED244C8
:104BC0004249B2494685B68505618280631E0E0A58
:104BD000138314001373E37F63170322B367E701A2
:104BE000B368F801639D041A63870740638608442D
:104BF0003309FF41B307074133362F013386C740DE
:104C00009317860063D6074C3389EF41B307E8401A
:104C100033B62F013386C740F68991B76350C00F72
:104C20006300030CB70680009307F07F3368D80059
:104C3000638AF43A9307800363CBC713FD4763DFAE
:104C4000C73513090EFE93070002B3562801630A05
:104C5000FE00130900043309C94133192801B3EFD9
:104C60002F013339F0013369D90031A2B367F8015C
:104C7000638A071C9307FEFF638C07389306F07F57
:104C80006309DE1A3E8E0DBDB30593406391042285
:104C9000B367E701638707329387F5FF63810744B2
:104CA0009306F07F638CD520BE859307800363CC89
:104CB000B72AFD4763CFB73C930700028D8F3319A6
:104CC000F700B356BF00B317FF003369D900B337FD
:104CD000F0003357B7003369F9003308E84041ACBE
:104CE000B367F801638007349307FEFF638A0720E8
:104CF0009306F07F6308DE2E3E8E2DBF631E0E14DA
:104D00009386140093F7E67F63910734B367E70156
:104D10006395042C6380073EB367F801638E073008
:104D20003309FF01B3070701333FE9013386E70188
:104D30009317860063D70700B70780FFFD177D8EA6
:104D4000854493777900E39F07E09317D601935842
:104D50003900B3E8F800935736001307F07F638DEE
:104D6000E404B207B18313F5F47FCE8581B53369CE
:104D7000F801333920017A99B337E9013386E70026
:104D800093178600E3DF07FA85049307F07F6396A5
:104D9000F418CE851305F07F8147814801BDC1EB32
:104DA0006384083A931636009317D8018D82B3E8CE
:104DB000D700F68993573800B3E7F800F9DB81454F
:104DC0001305F07FB70708008148CDB3370680FF91
:104DD0007D167D8E93777900998CE39507D8B5B7CA
:104DE0004A85EF10900413078501FD47E3D5E7D20C
:104DF000130685FFB317C900014905BB3369F801E4
:104E000033392001DDB13309FF4133060741333423
:104E10002F01330486409317840063CD0724B368C1
:104E20008900E39308CE8147814981441DBFE398FF
:104E300008F80E059317D7010D81B3E8A700935723
:104E400037009DBF0E059317D7010D81B3E8A7006A
:104E5000F2849357370011B73305934063820412ED
:104E6000B70680009307F07F558F630DF32E9307ED
:104E7000800363CBA720FD4763C3A72A93070002E3
:104E8000898F3319F700B356AF00B317FF003369AA
:104E9000D900B337F0003357A7003369F9003A98C7
:104EA0007E99B337F901338607019A84D1BDB706DD
:104EB00080009307F07F558FE319F3DE93173600D8
:104EC0008D839318D801B3E81701F68993573800FA
:104ED000E5B5130715FE9306000233D7E700630A12
:104EE000D600930600043386C6403396C700336964
:104EF000C900333920013369E9000146814491B585
:104F00003309FF01B30707013336E9013E969317D2
:104F100086008544E3D707E28944B70780FFFD1781
:104F2000F18F1357190013791900336927019398EA
:104F3000F70133E9280113D6170015B113090EFE46
:104F400093070002B3562801630AFE001309000408
:104F50003309C94133192801B3EF2F013339F00167
:104F60003369D90059B63369E701333920013389F0
:104F70002F41B3B72F013306F8409A84F689A5BEB6
:104F8000B367E701638207189307F5FF6384071C83
:104F90009306F07F6304D5123E85D1BD93070002CE
:104FA000B387C741B316F8003399FF0033D6CF015A
:104FB000D18E33392001B357C80133E926013E971A
:104FC0005DBB931736008D839318D801B3E81701A2
:104FD000AE8493573800F68949B3EDC33369F801BD
:104FE000E31F09DC0E059317D7010D81B368F500A7
:104FF00093573700D1B36381080E93163600931789
:10500000D8018D82B3E8D700F6899357380091BB59
:105010003309FF41B3070741333F2F013386E7418F
:105020008544D1BC0E059317D7010D81B368F500F7
:10503000F2849357370015B30E059317D7010D81EE
:10504000B3E8A7009357370029BB9307F07FE382AB
:10505000F6D43309FF013336E901B3070701B297EC
:105060009398F7011359190033E9280113D6170053
:10507000B684C1B93389EF413307E84033B62F0115
:105080003304C740F68949B43369E7013339200155
:1050900001BD938705FE93060002B357F700638AAC
:1050A000D50093060004B385B6403317B700336FBD
:1050B000EF003339E0013369F90055BD931736002D
:1050C0008D839318D801B3E8170193573800EDB1D9
:1050D000B368C900E39708C68147814959B133894C
:1050E000EF41B307E84033B62F013386C740F68956
:1050F000854411B4931636009317D8018D82B3E816
:10510000D70093573800B1B9931636009317D801DA
:105110008D82B3E8D700AA84935738003DB993072E
:1051200005FE93060002B357F700630AD500930605
:1051300000043385A6403317A700336FEF003339DF
:10514000E0013369F900A9BB81451305F07FB7077A
:105150000800A9BC3309FF01B30707013336F90181
:105160003E9675B3931636009317D8018D82B3E837
:10517000D7009357380089B1397193D7450122DCA4
:105180004AD856D22A891394C50006DE26DA4ED6AE
:1051900052D45AD05ECE13F5F77F318093DAF50101
:1051A000630B05109307F07F630BF514135AD901B5
:1051B0000E0433648A00370A8000336A4401131BEB
:1051C0003900930415C00144814B13D8460113994B
:1051D000C6001378F87FB2881359C90093D9F60135
:1051E000630E08089307F07F6300F8041357D60195
:1051F0000E0933692701130818C0B7078000336709
:10520000F90093183600B38404418145BD4733C883
:105210003A0163E4871A977700009387A72F0A045F
:105220003E9410403E9602863367C90093841480F2
:10523000631207101364240081488945C1BF130617
:10524000F07F81470147B207F25062545206B183A2
:105250007E08D18FB3E70701D2544259B259225A7E
:10526000925A025BF24B3A85BE85216182800148E9
:105270001306F07FB70708000147F1B73367C9008D
:105280004DC7630809304A8532C4EF10003A224600
:10529000130755FFF547930685FF998F3319D900FA
:1052A000B357F60033E72701B318D60026959304C9
:1052B000353F8145A1BF336A240163030A0636C620
:1052C00032C46306042A2285EF1020362246B246F5
:1052D000AA84130755FF754A138B84FF330AEA40EB
:1052E00033146401335A4901336A8A00331B69015C
:1052F0001305D0C0B30495400144814BF9B5336A1E
:10530000240163180A002144014B9304F07F894B68
:105310006DBD228A4A8B31449304F07F8D4B75B565
:105320001144014B8144854B4DB5136414008148F1
:105330008545E9BD136434004A878D45C1BD630AC4
:10534000052E8547898F9306800363DDF63201467B
:1053500081470147CDBDCE868947638DF53A8D479C
:10536000E387F5F085473688E383F5FE1385F43F40
:10537000E357A0FC93F778006396072893D638008C
:105380009317770063D80700B70700FFFD177D8FDD
:10539000138504409307E07FE3C3A7EA1316D70100
:1053A00093179700B1833367D6001376F57F61BDFD
:1053B000D6865287DA88DE8545B763614723630D59
:1053C000EA20DA86FD145284014B9317870013D329
:1053D00088013363F300935E0301B357D403131FB3
:1053E0000301135F0F0193D50601139E88003374E8
:1053F000D4033307FF024204C18D63FBE5009A9595
:105400001386F7FF63EE652663FCE526F9179A9588
:10541000998D33D7D503C206C182B3F5D5033306C0
:10542000EF02C205D58D63FBC5009A959306F7FF81
:1054300063E6652463F4C52479179A95C20741642D
:105440005D8F9307F4FF3375F70093580701935F5F
:105450000E01B377FE00B302F502B386C540B383F5
:10546000F80293D502013386AF021E962E9633853D
:10547000F803637376002295C168FD189355060101
:10548000337616014206B3F81201AA95469663E6F2
:10549000B6126382B6123306CB408D8E333BCB00FF
:1054A000338B66411385F43F630C6317B358DB03FA
:1054B00093550601337BDB03B3061F03420B33EB2B
:1054C0006501637BDB001A9B9385F8FF636D6B209E
:1054D000637BDB20F9181A9B330BDB40B356DB03ED
:1054E00042064182337BDB03330FDF02420B33661C
:1054F0006601637BE6011A969385F6FF6367661E75
:105500006375E61FF9161A96C208B3E8D80093959A
:10551000080193D20801C181B38EF5023306E6413A
:10552000B385BF0293D60E01B387F202BE95AE9645
:10553000B38F5F0263F4F600C167BE9FC165FD15BE
:1055400093D70601ED8EC206B3FEBE00BE9FF6964F
:10555000637FF6091A969387F8FF6369661A636892
:10556000F619630FF61BBE8893E8180011B54A853B
:10557000EF10A00B13075501F145930405022246D5
:10558000B246E3DAE5D4130485FF331A8900014BF0
:1055900085B3328532C4EF10400913075501F14637
:1055A000AA87224613050502E3D6E6CEE117331794
:1055B000F6008148E5B9E370CBEE729B3335CB0141
:1055C0001A95AA961305F7FF6378D30263E6B6101F
:1055D0006382D5102A87C1B5E3651BDF93551B0095
:1055E0009316FA0113541A00CD8E7E0BF9BBE31DFE
:1055F000F6F7E38F06D6B9BFE31ED3FCE378CBFD05
:105600002A8751BD93F7F8009146E389D7D693B71F
:10561000C8FF9386480093C717008D823E978DB3CD
:1056200081468547E34CA0FEFD58E31C05D093045A
:1056300010C085471385E441B316A70033D6F800A0
:105640003395A800D18E3335A000C98E13F67600AD
:105650003357F70001CE93F7F60011466388C70071
:1056600093874600B3B6D7003697BE869317870058
:1056700063D80704054681470147F1B636877DBBED
:10568000B28779B3FD46E3D7F6FA0556098E93063D
:1056900000023356C7006388D7009387E443B317EB
:1056A000F700B3E8F800B3361001D18E13F6760098
:1056B000814701CE93F7F60011460147E392C7FAFE
:1056C000931797001316D701B18313D73600518F64
:1056D000014695BEE370CBF0729B3335CB011A9532
:1056E0007917AA964DBBAE88C5BBAE8631BD931760
:1056F0001E0033BEC70172931A96F9183E8EE31549
:10570000F6E7E307DEC693E818009DB1BE88E30A1A
:10571000F6FF99BD36881306F07F8147014725B60D
:10572000E367DEFCBE88E310DEFE99B113D74501C6
:10573000B7071000FD1713D846011377F77F9308BA
:10574000F07F33FEB700AA8EF58FFD81328F13787C
:10575000F87FFD82630B170105436306180163148C
:105760000701630DFE001A858280B368AE00054311
:10577000E39B08FEE319E8FED18FF5F70543E394B8
:10578000EEFF0143E381D5FE054371FF3365AE00B3
:105790003333A000C9BF13D74501B7071000FD1769
:1057A00013D846011377F77F9308F07F33F3B700E0
:1057B0002A8EF58FFD81B28E1378F87FFD82630803
:1057C0001703630018030DEBB368A300631408000C
:1057D0005D8E29CA638508046388D502054595ED69
:1057E0008280B3E8C700E38008FE79558280336584
:1057F000A30065FD630CE802631408005D8E79DE8A
:10580000E39ED5FCE34CE8FC63480701E3E867FC52
:105810006303F302637FF30081E57D558280F5DE4B
:10582000054582800145E39B08FA82805D8E69DA36
:105830006DBF01458280E3E3CEFB0145E372DEFBF1
:10584000E5F1E1BF13D74501B7071000FD1713D8E5
:1058500046011377F77F9308F07F33FEB700AA8ED7
:10586000F58FFD81328F1378F87FFD82630E170369
:10587000630D180129E3B368AE00631F08005D8E55
:1058800001EE0143638C080421A8B3E8C700094373
:10589000639608046DD305A0638408046385D5026C
:1058A00005438DCD7D531DA8B368AE0009436397B2
:1058B0000802630AE802631408005D8E75D2E39162
:1058C000D5FEE34FE8FC63490701E3EBC7FD630F37
:1058D000FE0001436374FE00F1D505431A85828002
:1058E000EDFE7D53E5BF5D8E79DACDBFE36ADFFB68
:1058F0000143E3F5EEFFF5F175B739714AD813D9D5
:1059000045014ED652D456D29399C50006DE22DC0C
:1059100026DA5AD05ECE1379F97F2A8A93D9C90044
:1059200093DAF501630D090E9307F07F6306F9180A
:105930001354D5018E09B36934013704800033E470
:10594000890093143500130919C08149814B13D77D
:105950004601139AC6001377F77FB285135ACA001F
:1059600013DBF601630B07109307F07F6303F70463
:105970009357D6010E0A33EA4701130717C0B7073A
:105980008000B367FA00931536003A99814833C70F
:105990006A01BD463A851308190063E83617177681
:1059A0000000130626BB8A09B29983A60900B296A5
:1059B0008286B367CA001309F97F6399071293E9D6
:1059C000290081458948E1B701479307F07F3704F3
:1059D000080081443204D20731807E075D8C598CE7
:1059E000A285F250625426854259D254B259225AA5
:1059F000925A025BF24B216182805A853E84AE84CA
:105A0000C68B8947638DFB0E8D47E38FFBFA854775
:105A10002A87639EFB3881470144814465BF33E494
:105A2000A90061C036C632C4638C092A4E85EF00D6
:105A3000D03F2246B246AA87130755FF7544938488
:105A400087FF198CB399990033548A003364340169
:105A5000B3149A0013D746011309D0C0139AC60095
:105A60001377F77F3309F9408149814BB285135A87
:105A7000CA0013DBF601E31907EEB367CA00B1C72A
:105A8000630F0A22528532C4EF00303A22462A8739
:105A9000930655FFF547930587FF958F331ABA0094
:105AA000B357F600B3E74701B315B6003309E94031
:105AB0001309D9C08148E1BD33E4A90001ECA14933
:105AC00081441309F07F894B59B593E91900814549
:105AD000854875BD4E84AA84B1491309F07F8D4B6A
